:100000000C9434000C9451000C9451000C94510049
:100010000C9451000C9451000C9451000C9451001C
:100020000C9451000C9451000C9451000C948000DD
:100030000C9451000C9451000C9451000C945100FC
:100040000C9451000C9451000C9451000C945100EC
:100050000C9451000C9451000C9451000C945100DC
:100060000C9451000C94510011241FBECFEFD8E026
:10007000DEBFCDBF11E0A0E0B1E0ECE7FAE002C0E6
:1000800005900D92AE33B107D9F721E0AEE3B1E0B0
:1000900001C01D92A034B207E1F70E9447010C9401
:1000A0003C050C940000EFE1FEE43197F1F700C04D
:1000B000000096B19823E9F38FE19EE40197F1F7F0
:1000C00000C000000895E1E8F0E08081886080834E
:1000D00080818F7E8083AFE6B0E08C9182608C93CC
:1000E00088EA91E6909389008093880080818B7FD5
:1000F0008083808182608083808181608083089595
:100100001F920F920FB60F9211248F939F9380919D
:100110003E01882399F0809102018533B1F48091EA
:100120000101893391F480910001893371F480E3F6
:100130008093020180930101809300019F918F9130
:100140000F900FBE0F901F9018958091000189337A
:10015000C1F480E38093000190910101993359F437
:1001600080930101809102018F5F8093020181E001
:1001700080933F01E3CF809101018F5F8093010164
:10018000F6CF809100018F5F80930001F0CF9BB18B
:100190009F709BB99BB1807F892B8BB9299A299A33
:1001A00029980895CF93C82F28980E94C7008C2FB4
:1001B0008295807F0E94C7008FE39FE10197F1F74E
:1001C00000C00000CF910895811104C080E8860F1F
:1001D0000C94D20080ECFBCF84B1836084B98AB1E7
:1001E000806F8AB98FE59AEE0197F1F700C00000A1
:1001F00080E30E94C7008FE19EE40197F1F700C001
:10020000000080E30E94C7008FED91E00197F1F7B5
:1002100000C0000080E30E94C70080E20E94C70087
:100220008FE39FE10197F1F700C0000088E20E9490
:10023000D2008FE00C94D200CF93C82F289A0E944E
:10024000C7008C2F8295807F0E94C7008FE39FE1BB
:100250000197F1F700C00000CF910895CF93DF938D
:10026000EC018991811103C0DF91CF9108950E9423
:100270001C01F7CFCF9380E80E94D200C8E281E34F
:1002800091E00E942E01C150D1F7CF910895CF93F4
:10029000DF9300D000D000D01F92CDB7DEB70E9410
:1002A000EC000E946300429A449A60E080E00E9461
:1002B000E40083E091E00E942E0160E081E00E9472
:1002C000E4008CE091E00E942E012FEF83ED90E39B
:1002D000215080409040E1F700C000000E943A01A8
:1002E000789460E080E00E94E4008DE191E00E945B
:1002F0002E0182E0A82E93E0892E20E3922E32E296
:10030000E32E31E0F32E47E0B42E8E010F5F1F4F36
:100310007724739459E2C52E51E0D52E86B18470AE
:1003200096B1907120913E01211182C0811149C086
:10033000809181008B7F8093810080918100826019
:100340008093810080918100816080938100709210
:100350003E0180913F01813009F780913E0181305B
:1003600021F080913E018230C9F610923F018091C8
:100370003E01833099F260E080E00E94E4008091C9
:100380000201803309F482C02091000190910101A3
:10039000809102011F922F931F929F931F928F9320
:1003A000DF92CF921F92BF921F930F930E9457022A
:1003B000C8010E942E010FB6F894DEBF0FBECDBF5C
:1003C000ADCF9111C6CF80E10E94530090920201FF
:1003D0009092010190920001809181008B7F809327
:1003E0008100809181008D7F8093810080918100C8
:1003F0008E7F8093810060E080E00E94E400909115
:100400000001809101011F929F931F928F93FF9291
:10041000EF921F92BF921F930F930E945702C80141
:100420000E942E010FB6F894DEBF0FBECDBF91CF54
:1004300020913E01213029F4811121C020933E01F9
:1004400088CF20913E01223081F4811106C084E0E2
:100450000E94530010923E017CCF91117ACF80E12F
:100460000E94530080923E0174CF20913E012330C0
:1004700009F06FCF811106C084E00E945300A09262
:100480003E0167CF911165CF80E1F7CF90910001D8
:10049000809101011F929F931F928F93FF92EF9281
:1004A0001F92BF921F930F930E94570281CFAEE01D
:1004B000B0E0EDE5F2E00C9413050D891E898F89FB
:1004C000988D26E02C831A83098397FF02C080E071
:1004D00090E801979E838D83AE01455E5F4F698DE5
:1004E0007A8DCE0101960E9487024D815E8157FD73
:1004F0000AC02F813885421753070CF49A01020F66
:10050000131FF80110822E96E4E00C942F05ABE047
:10051000B0E0EDE8F2E00C9405057C013B018A01B6
:10052000FC0117821682838181FFC8C1CE0101962A
:100530005C01F7019381F30193FD859193FF819114
:100540003F01882309F453C1853239F493FD859125
:1005500093FF81913F01853229F4B70190E00E9419
:100560007704E7CF912C212C312CFFE1F31538F0E3
:100570008B3211F190F4803209F1833229F137FC8A
:100580003CC020ED280F2A3050F536FE20C08AE00E
:10059000989E200D1124922E06C08D3291F080334A
:1005A00071F7689430F8F30193FD859193FF819181
:1005B0003F018111DACF21C0689431F8689432F894
:1005C000F2CF689433F8EFCF689434F8ECCFEAE0D8
:1005D0002E9E200D1124222E689435F8E4CF8E3201
:1005E00029F436FC04C1689436F8DDCF8C3619F452
:1005F000689437F8D8CF8836B1F2982F9F7D9554FC
:100600009330E0F08336A1F18337C1F1833509F0EF
:1006100063C02801F2E04F0E511CF801C080D18068
:10062000692D70E036FC02C06FEF7FEFC6010E94BB
:1006300061044C01689437F882010AC00C5F1F4FB7
:10064000FFE3F98388248394912C6501E89437F8BB
:1006500033FE2DC0522C8114910471F5552009F4FC
:1006600068CFB70180E290E00E9477045A94F6CFF9
:10067000F801808189830E5F1F4FE4CF2801F2E0EB
:100680004F0E511CF801C080D180692D70E036FCFE
:1006900002C06FEF7FEFC6010E946C044C01820123
:1006A000D5CFB70180E290E00E9477042A94281405
:1006B000190409F0B0F7CECFF60137FC859137FE6B
:1006C00081916F01B70190E00E94770451105A9414
:1006D000F1E08F1A9108BFCF843619F0893609F0FE
:1006E00077C0F80137FE6BC0608171818281938190
:1006F0000C5F1F4FF32DFF763F2E97FF09C090959B
:100700008095709561957F4F8F4F9F4F689437F814
:100710002AE030E0A5010E94A704C82ECA188C2C3C
:10072000432C36FE0CC0E89440F8C91440F434FE63
:1007300005C032FC03C0F32DFE7E4F2E892C44FEF3
:1007400095C0FE01EC0DF11D8081803309F087C05A
:10075000242D297E422E842D8870582E43FC95C06E
:1007600040FE8FC09C2C821418F42C0C922C9818EC
:1007700044FE91C0B70180E390E00E94770442FEFE
:1007800009C088E790E041FE02C088E590E0B7012B
:100790000E947704C91408F48AC0CA94D12C9FEF30
:1007A000C91AD90ACA0CDB1CF60182916F01B70184
:1007B00090E00E947704AC14BD04B1F74FCF608184
:1007C0007181072E000C880B990B0E5F1F4F92CF83
:1007D000D32CE894D4F82AE030E0853739F1232D82
:1007E000297FD22E8F3601F148F48835A9F0F70120
:1007F000868197812B96E2E10C942105803749F0A0
:100800008837A9F7D4FE02C06894D2F820E130E01E
:100810000DC06894D4F8F6CF34FE03C0822F8660F2
:10082000D82E20E132E002C028E030E0F801D7FE07
:100830000FC060817181828193810C5F1F4FA50180
:100840000E94A704C82ECA183D2CE89437F867CF39
:100850006081718190E080E00E5F1F4FF0CF42FC1D
:1008600002C0839478CF8394839475CF842D867847
:1008700009F471CFF6CFB70180E290E00E947704CF
:1008800083948214C0F3512C73CF522C58188214C5
:1008900008F46ECFF8CF842D867809F47BCF8BE2F5
:1008A00041FE80E247FC8DE2B70190E071CFB701D5
:1008B00080E390E00E9477049A946CCF8FEF9FEFD3
:1008C00099CFFC010590615070400110D8F78095D8
:1008D00090958E0F9F1F0895FC016150704001900C
:1008E0000110D8F7809590958E0F9F1F08950F9354
:1008F0001F93CF93DF93182F092FEB018B8181FD7D
:1009000009C01FEF0FEF812F902FDF91CF911F9123
:100910000F91089582FF14C02E813F818C819D81AB
:10092000281739073CF4E881F981CF0101969983B2
:10093000888310838E819F8101969F838E83E3CF6E
:10094000E885F985812F0995892BA1F3DACFFA0182
:10095000AA27283051F1203181F1E8946F936E7FFE
:100960006E5F7F4F8F4F9F4FAF4FB1E03ED0B4E0EF
:100970003CD0670F781F891F9A1FA11D680F791F30
:100980008A1F911DA11D6A0F711D811D911DA11D41
:1009900020D009F468943F912AE0269F1124301951
:1009A000305D3193DEF6CF010895462F4770405DEC
:1009B0004193B3E00FD0C9F7F6CF462F4F70405D9B
:1009C0004A3318F0495D31FD4052419302D0A9F7F6
:1009D000EACFB4E0A6959795879577956795BA95F0
:1009E000C9F700976105710508959B01AC010A2EB6
:1009F00006945795479537952795BA95C9F7620F8D
:100A0000731F841F951FA01D08952F923F924F9230
:100A10005F926F927F928F929F92AF92BF92CF928E
:100A2000DF92EF92FF920F931F93CF93DF93CDB797
:100A3000DEB7CA1BDB0B0FB6F894DEBF0FBECDBF0F
:100A400009942A88398848885F846E847D848C84E0
:100A50009B84AA84B984C884DF80EE80FD800C81E9
:100A60001B81AA81B981CE0FD11D0FB6F894DEBFCC
:0C0A70000FBECDBFED010895F894FFCF3C
:100A7C00303030416D6D616E20432E004C61622030
:100A8C00363A2053746F7077617463680020302E8F
:100A9C0030002025632E256300256325632E2563F6
:0E0AAC000020202020202020202020200000DC
:00000001FF
